{
  "_format": "hh-sol-artifact-1",
  "contractName": "MaxtroxNFT",
  "sourceName": "contracts/Auction.sol",
  "abi": [
    {
      "inputs": [],
      "stateMutability": "nonpayable",
      "type": "constructor"
    },
    {
      "inputs": [
        {
          "internalType": "address",
          "name": "sender",
          "type": "address"
        },
        {
          "internalType": "uint256",
          "name": "tokenId",
          "type": "uint256"
        },
        {
          "internalType": "address",
          "name": "owner",
          "type": "address"
        }
      ],
      "name": "ERC721IncorrectOwner",
      "type": "error"
    },
    {
      "inputs": [
        {
          "internalType": "address",
          "name": "operator",
          "type": "address"
        },
        {
          "internalType": "uint256",
          "name": "tokenId",
          "type": "uint256"
        }
      ],
      "name": "ERC721InsufficientApproval",
      "type": "error"
    },
    {
      "inputs": [
        {
          "internalType": "address",
          "name": "approver",
          "type": "address"
        }
      ],
      "name": "ERC721InvalidApprover",
      "type": "error"
    },
    {
      "inputs": [
        {
          "internalType": "address",
          "name": "operator",
          "type": "address"
        }
      ],
      "name": "ERC721InvalidOperator",
      "type": "error"
    },
    {
      "inputs": [
        {
          "internalType": "address",
          "name": "owner",
          "type": "address"
        }
      ],
      "name": "ERC721InvalidOwner",
      "type": "error"
    },
    {
      "inputs": [
        {
          "internalType": "address",
          "name": "receiver",
          "type": "address"
        }
      ],
      "name": "ERC721InvalidReceiver",
      "type": "error"
    },
    {
      "inputs": [
        {
          "internalType": "address",
          "name": "sender",
          "type": "address"
        }
      ],
      "name": "ERC721InvalidSender",
      "type": "error"
    },
    {
      "inputs": [
        {
          "internalType": "uint256",
          "name": "tokenId",
          "type": "uint256"
        }
      ],
      "name": "ERC721NonexistentToken",
      "type": "error"
    },
    {
      "inputs": [
        {
          "internalType": "address",
          "name": "owner",
          "type": "address"
        }
      ],
      "name": "OwnableInvalidOwner",
      "type": "error"
    },
    {
      "inputs": [
        {
          "internalType": "address",
          "name": "account",
          "type": "address"
        }
      ],
      "name": "OwnableUnauthorizedAccount",
      "type": "error"
    },
    {
      "anonymous": false,
      "inputs": [
        {
          "indexed": true,
          "internalType": "address",
          "name": "owner",
          "type": "address"
        },
        {
          "indexed": true,
          "internalType": "address",
          "name": "approved",
          "type": "address"
        },
        {
          "indexed": true,
          "internalType": "uint256",
          "name": "tokenId",
          "type": "uint256"
        }
      ],
      "name": "Approval",
      "type": "event"
    },
    {
      "anonymous": false,
      "inputs": [
        {
          "indexed": true,
          "internalType": "address",
          "name": "owner",
          "type": "address"
        },
        {
          "indexed": true,
          "internalType": "address",
          "name": "operator",
          "type": "address"
        },
        {
          "indexed": false,
          "internalType": "bool",
          "name": "approved",
          "type": "bool"
        }
      ],
      "name": "ApprovalForAll",
      "type": "event"
    },
    {
      "anonymous": false,
      "inputs": [
        {
          "indexed": true,
          "internalType": "uint256",
          "name": "tokenId",
          "type": "uint256"
        },
        {
          "indexed": false,
          "internalType": "uint256",
          "name": "startingPrice",
          "type": "uint256"
        },
        {
          "indexed": false,
          "internalType": "uint256",
          "name": "endTime",
          "type": "uint256"
        }
      ],
      "name": "AuctionCreated",
      "type": "event"
    },
    {
      "anonymous": false,
      "inputs": [
        {
          "indexed": true,
          "internalType": "uint256",
          "name": "tokenId",
          "type": "uint256"
        },
        {
          "indexed": false,
          "internalType": "address",
          "name": "winner",
          "type": "address"
        },
        {
          "indexed": false,
          "internalType": "uint256",
          "name": "amount",
          "type": "uint256"
        }
      ],
      "name": "AuctionEnded",
      "type": "event"
    },
    {
      "anonymous": false,
      "inputs": [
        {
          "indexed": false,
          "internalType": "uint256",
          "name": "_fromTokenId",
          "type": "uint256"
        },
        {
          "indexed": false,
          "internalType": "uint256",
          "name": "_toTokenId",
          "type": "uint256"
        }
      ],
      "name": "BatchMetadataUpdate",
      "type": "event"
    },
    {
      "anonymous": false,
      "inputs": [
        {
          "indexed": true,
          "internalType": "uint256",
          "name": "tokenId",
          "type": "uint256"
        },
        {
          "indexed": false,
          "internalType": "address",
          "name": "bidder",
          "type": "address"
        },
        {
          "indexed": false,
          "internalType": "uint256",
          "name": "amount",
          "type": "uint256"
        }
      ],
      "name": "BidPlaced",
      "type": "event"
    },
    {
      "anonymous": false,
      "inputs": [
        {
          "indexed": false,
          "internalType": "uint256",
          "name": "_tokenId",
          "type": "uint256"
        }
      ],
      "name": "MetadataUpdate",
      "type": "event"
    },
    {
      "anonymous": false,
      "inputs": [
        {
          "indexed": true,
          "internalType": "uint256",
          "name": "tokenId",
          "type": "uint256"
        },
        {
          "indexed": false,
          "internalType": "address",
          "name": "owner",
          "type": "address"
        },
        {
          "indexed": false,
          "internalType": "string",
          "name": "tokenURI",
          "type": "string"
        }
      ],
      "name": "NFTMinted",
      "type": "event"
    },
    {
      "anonymous": false,
      "inputs": [
        {
          "indexed": true,
          "internalType": "address",
          "name": "previousOwner",
          "type": "address"
        },
        {
          "indexed": true,
          "internalType": "address",
          "name": "newOwner",
          "type": "address"
        }
      ],
      "name": "OwnershipTransferred",
      "type": "event"
    },
    {
      "anonymous": false,
      "inputs": [
        {
          "indexed": true,
          "internalType": "address",
          "name": "from",
          "type": "address"
        },
        {
          "indexed": true,
          "internalType": "address",
          "name": "to",
          "type": "address"
        },
        {
          "indexed": true,
          "internalType": "uint256",
          "name": "tokenId",
          "type": "uint256"
        }
      ],
      "name": "Transfer",
      "type": "event"
    },
    {
      "inputs": [
        {
          "internalType": "address",
          "name": "to",
          "type": "address"
        },
        {
          "internalType": "uint256",
          "name": "tokenId",
          "type": "uint256"
        }
      ],
      "name": "approve",
      "outputs": [],
      "stateMutability": "nonpayable",
      "type": "function"
    },
    {
      "inputs": [
        {
          "internalType": "uint256",
          "name": "",
          "type": "uint256"
        }
      ],
      "name": "auctions",
      "outputs": [
        {
          "internalType": "address payable",
          "name": "seller",
          "type": "address"
        },
        {
          "internalType": "uint256",
          "name": "startingPrice",
          "type": "uint256"
        },
        {
          "internalType": "uint256",
          "name": "highestBid",
          "type": "uint256"
        },
        {
          "internalType": "address payable",
          "name": "highestBidder",
          "type": "address"
        },
        {
          "internalType": "bool",
          "name": "active",
          "type": "bool"
        },
        {
          "internalType": "uint256",
          "name": "endTime",
          "type": "uint256"
        }
      ],
      "stateMutability": "view",
      "type": "function"
    },
    {
      "inputs": [
        {
          "internalType": "address",
          "name": "owner",
          "type": "address"
        }
      ],
      "name": "balanceOf",
      "outputs": [
        {
          "internalType": "uint256",
          "name": "",
          "type": "uint256"
        }
      ],
      "stateMutability": "view",
      "type": "function"
    },
    {
      "inputs": [
        {
          "internalType": "uint256",
          "name": "tokenId",
          "type": "uint256"
        },
        {
          "internalType": "uint256",
          "name": "startingPrice",
          "type": "uint256"
        },
        {
          "internalType": "uint256",
          "name": "duration",
          "type": "uint256"
        }
      ],
      "name": "createAuction",
      "outputs": [],
      "stateMutability": "nonpayable",
      "type": "function"
    },
    {
      "inputs": [
        {
          "internalType": "uint256",
          "name": "tokenId",
          "type": "uint256"
        }
      ],
      "name": "endAuction",
      "outputs": [],
      "stateMutability": "nonpayable",
      "type": "function"
    },
    {
      "inputs": [
        {
          "internalType": "uint256",
          "name": "tokenId",
          "type": "uint256"
        }
      ],
      "name": "getApproved",
      "outputs": [
        {
          "internalType": "address",
          "name": "",
          "type": "address"
        }
      ],
      "stateMutability": "view",
      "type": "function"
    },
    {
      "inputs": [
        {
          "internalType": "address",
          "name": "owner",
          "type": "address"
        },
        {
          "internalType": "address",
          "name": "operator",
          "type": "address"
        }
      ],
      "name": "isApprovedForAll",
      "outputs": [
        {
          "internalType": "bool",
          "name": "",
          "type": "bool"
        }
      ],
      "stateMutability": "view",
      "type": "function"
    },
    {
      "inputs": [
        {
          "internalType": "string",
          "name": "tokenURI",
          "type": "string"
        }
      ],
      "name": "mintNFT",
      "outputs": [
        {
          "internalType": "uint256",
          "name": "",
          "type": "uint256"
        }
      ],
      "stateMutability": "nonpayable",
      "type": "function"
    },
    {
      "inputs": [],
      "name": "name",
      "outputs": [
        {
          "internalType": "string",
          "name": "",
          "type": "string"
        }
      ],
      "stateMutability": "view",
      "type": "function"
    },
    {
      "inputs": [],
      "name": "owner",
      "outputs": [
        {
          "internalType": "address",
          "name": "",
          "type": "address"
        }
      ],
      "stateMutability": "view",
      "type": "function"
    },
    {
      "inputs": [
        {
          "internalType": "uint256",
          "name": "tokenId",
          "type": "uint256"
        }
      ],
      "name": "ownerOf",
      "outputs": [
        {
          "internalType": "address",
          "name": "",
          "type": "address"
        }
      ],
      "stateMutability": "view",
      "type": "function"
    },
    {
      "inputs": [
        {
          "internalType": "uint256",
          "name": "tokenId",
          "type": "uint256"
        }
      ],
      "name": "placeBid",
      "outputs": [],
      "stateMutability": "payable",
      "type": "function"
    },
    {
      "inputs": [],
      "name": "renounceOwnership",
      "outputs": [],
      "stateMutability": "nonpayable",
      "type": "function"
    },
    {
      "inputs": [
        {
          "internalType": "address",
          "name": "from",
          "type": "address"
        },
        {
          "internalType": "address",
          "name": "to",
          "type": "address"
        },
        {
          "internalType": "uint256",
          "name": "tokenId",
          "type": "uint256"
        }
      ],
      "name": "safeTransferFrom",
      "outputs": [],
      "stateMutability": "nonpayable",
      "type": "function"
    },
    {
      "inputs": [
        {
          "internalType": "address",
          "name": "from",
          "type": "address"
        },
        {
          "internalType": "address",
          "name": "to",
          "type": "address"
        },
        {
          "internalType": "uint256",
          "name": "tokenId",
          "type": "uint256"
        },
        {
          "internalType": "bytes",
          "name": "data",
          "type": "bytes"
        }
      ],
      "name": "safeTransferFrom",
      "outputs": [],
      "stateMutability": "nonpayable",
      "type": "function"
    },
    {
      "inputs": [
        {
          "internalType": "address",
          "name": "operator",
          "type": "address"
        },
        {
          "internalType": "bool",
          "name": "approved",
          "type": "bool"
        }
      ],
      "name": "setApprovalForAll",
      "outputs": [],
      "stateMutability": "nonpayable",
      "type": "function"
    },
    {
      "inputs": [
        {
          "internalType": "bytes4",
          "name": "interfaceId",
          "type": "bytes4"
        }
      ],
      "name": "supportsInterface",
      "outputs": [
        {
          "internalType": "bool",
          "name": "",
          "type": "bool"
        }
      ],
      "stateMutability": "view",
      "type": "function"
    },
    {
      "inputs": [],
      "name": "symbol",
      "outputs": [
        {
          "internalType": "string",
          "name": "",
          "type": "string"
        }
      ],
      "stateMutability": "view",
      "type": "function"
    },
    {
      "inputs": [
        {
          "internalType": "uint256",
          "name": "tokenId",
          "type": "uint256"
        }
      ],
      "name": "tokenURI",
      "outputs": [
        {
          "internalType": "string",
          "name": "",
          "type": "string"
        }
      ],
      "stateMutability": "view",
      "type": "function"
    },
    {
      "inputs": [
        {
          "internalType": "address",
          "name": "from",
          "type": "address"
        },
        {
          "internalType": "address",
          "name": "to",
          "type": "address"
        },
        {
          "internalType": "uint256",
          "name": "tokenId",
          "type": "uint256"
        }
      ],
      "name": "transferFrom",
      "outputs": [],
      "stateMutability": "nonpayable",
      "type": "function"
    },
    {
      "inputs": [
        {
          "internalType": "address",
          "name": "newOwner",
          "type": "address"
        }
      ],
      "name": "transferOwnership",
      "outputs": [],
      "stateMutability": "nonpayable",
      "type": "function"
    }
  ],
  "bytecode": "0x60806040523480156200001157600080fd5b50336040518060400160405280600a81526020017f4d617874726f784e4654000000000000000000000000000000000000000000008152506040518060400160405280600581526020017f4d5854524e000000000000000000000000000000000000000000000000000000815250816000908162000090919062000472565b508060019081620000a2919062000472565b505050600073ffffffffffffffffffffffffffffffffffffffff168173ffffffffffffffffffffffffffffffffffffffff16036200011a5760006040517f1e4fbdf70000000000000000000000000000000000000000000000000000000081526004016200011191906200059e565b60405180910390fd5b6200012b816200013260201b60201c565b50620005bb565b6000600760009054906101000a900473ffffffffffffffffffffffffffffffffffffffff16905081600760006101000a81548173ffffffffffffffffffffffffffffffffffffffff021916908373ffffffffffffffffffffffffffffffffffffffff1602179055508173ffffffffffffffffffffffffffffffffffffffff168173ffffffffffffffffffffffffffffffffffffffff167f8be0079c531659141344cd1fd0a4f28419497f9722a3daafe3b4186f6b6457e060405160405180910390a35050565b600081519050919050565b7f4e487b7100000000000000000000000000000000000000000000000000000000600052604160045260246000fd5b7f4e487b7100000000000000000000000000000000000000000000000000000000600052602260045260246000fd5b600060028204905060018216806200027a57607f821691505b60208210810362000290576200028f62000232565b5b50919050565b60008190508160005260206000209050919050565b60006020601f8301049050919050565b600082821b905092915050565b600060088302620002fa7fffffffffffffffffffffffffffffffffffffffffffffffffffffffffffffffff82620002bb565b620003068683620002bb565b95508019841693508086168417925050509392505050565b6000819050919050565b6000819050919050565b6000620003536200034d62000347846200031e565b62000328565b6200031e565b9050919050565b6000819050919050565b6200036f8362000332565b620003876200037e826200035a565b848454620002c8565b825550505050565b600090565b6200039e6200038f565b620003ab81848462000364565b505050565b5b81811015620003d357620003c760008262000394565b600181019050620003b1565b5050565b601f8211156200042257620003ec8162000296565b620003f784620002ab565b8101602085101562000407578190505b6200041f6200041685620002ab565b830182620003b0565b50505b505050565b600082821c905092915050565b6000620004476000198460080262000427565b1980831691505092915050565b600062000462838362000434565b9150826002028217905092915050565b6200047d82620001f8565b67ffffffffffffffff81111562000499576200049862000203565b5b620004a5825462000261565b620004b2828285620003d7565b600060209050601f831160018114620004ea5760008415620004d5578287015190505b620004e1858262000454565b86555062000551565b601f198416620004fa8662000296565b60005b828110156200052457848901518255600182019150602085019450602081019050620004fd565b8683101562000544578489015162000540601f89168262000434565b8355505b6001600288020188555050505b505050505050565b600073ffffffffffffffffffffffffffffffffffffffff82169050919050565b6000620005868262000559565b9050919050565b620005988162000579565b82525050565b6000602082019050620005b560008301846200058d565b92915050565b61381480620005cb6000396000f3fe60806040526004361061012a5760003560e01c80638da5cb5b116100ab578063b9a2de3a1161006f578063b9a2de3a146103e6578063c87b56dd1461040f578063cda4beef1461044c578063e985e9c514610475578063f2fde38b146104b2578063fb37e883146104db5761012a565b80638da5cb5b1461032257806395d89b411461034d5780639979ef4514610378578063a22cb46514610394578063b88d4fde146103bd5761012a565b806342842e0e116100f257806342842e0e14610226578063571a26a01461024f5780636352211e1461029157806370a08231146102ce578063715018a61461030b5761012a565b806301ffc9a71461012f57806306fdde031461016c578063081812fc14610197578063095ea7b3146101d457806323b872dd146101fd575b600080fd5b34801561013b57600080fd5b5061015660048036038101906101519190612611565b610518565b6040516101639190612659565b60405180910390f35b34801561017857600080fd5b50610181610579565b60405161018e9190612704565b60405180910390f35b3480156101a357600080fd5b506101be60048036038101906101b9919061275c565b61060b565b6040516101cb91906127ca565b60405180910390f35b3480156101e057600080fd5b506101fb60048036038101906101f69190612811565b610627565b005b34801561020957600080fd5b50610224600480360381019061021f9190612851565b61063d565b005b34801561023257600080fd5b5061024d60048036038101906102489190612851565b61073f565b005b34801561025b57600080fd5b506102766004803603810190610271919061275c565b61075f565b604051610288969594939291906128d4565b60405180910390f35b34801561029d57600080fd5b506102b860048036038101906102b3919061275c565b6107e8565b6040516102c591906127ca565b60405180910390f35b3480156102da57600080fd5b506102f560048036038101906102f09190612935565b6107fa565b6040516103029190612962565b60405180910390f35b34801561031757600080fd5b506103206108b4565b005b34801561032e57600080fd5b506103376108c8565b60405161034491906127ca565b60405180910390f35b34801561035957600080fd5b506103626108f2565b60405161036f9190612704565b60405180910390f35b610392600480360381019061038d919061275c565b610984565b005b3480156103a057600080fd5b506103bb60048036038101906103b691906129a9565b610c3b565b005b3480156103c957600080fd5b506103e460048036038101906103df9190612b1e565b610c51565b005b3480156103f257600080fd5b5061040d6004803603810190610408919061275c565b610c6e565b005b34801561041b57600080fd5b506104366004803603810190610431919061275c565b610e9f565b6040516104439190612704565b60405180910390f35b34801561045857600080fd5b50610473600480360381019061046e9190612ba1565b610fb2565b005b34801561048157600080fd5b5061049c60048036038101906104979190612bf4565b61126f565b6040516104a99190612659565b60405180910390f35b3480156104be57600080fd5b506104d960048036038101906104d49190612935565b611303565b005b3480156104e757600080fd5b5061050260048036038101906104fd9190612cd5565b611389565b60405161050f9190612962565b60405180910390f35b6000634906490660e01b7bffffffffffffffffffffffffffffffffffffffffffffffffffffffff1916827bffffffffffffffffffffffffffffffffffffffffffffffffffffffff19161480610572575061057182611403565b5b9050919050565b60606000805461058890612d4d565b80601f01602080910402602001604051908101604052809291908181526020018280546105b490612d4d565b80156106015780601f106105d657610100808354040283529160200191610601565b820191906000526020600020905b8154815290600101906020018083116105e457829003601f168201915b5050505050905090565b6000610616826114e5565b506106208261156d565b9050919050565b61063982826106346115aa565b6115b2565b5050565b600073ffffffffffffffffffffffffffffffffffffffff168273ffffffffffffffffffffffffffffffffffffffff16036106af5760006040517f64a0ae920000000000000000000000000000000000000000000000000000000081526004016106a691906127ca565b60405180910390fd5b60006106c383836106be6115aa565b6115c4565b90508373ffffffffffffffffffffffffffffffffffffffff168173ffffffffffffffffffffffffffffffffffffffff1614610739578382826040517f64283d7b00000000000000000000000000000000000000000000000000000000815260040161073093929190612d7e565b60405180910390fd5b50505050565b61075a83838360405180602001604052806000815250610c51565b505050565b60096020528060005260406000206000915090508060000160009054906101000a900473ffffffffffffffffffffffffffffffffffffffff16908060010154908060020154908060030160009054906101000a900473ffffffffffffffffffffffffffffffffffffffff16908060030160149054906101000a900460ff16908060040154905086565b60006107f3826114e5565b9050919050565b60008073ffffffffffffffffffffffffffffffffffffffff168273ffffffffffffffffffffffffffffffffffffffff160361086d5760006040517f89c62b6400000000000000000000000000000000000000000000000000000000815260040161086491906127ca565b60405180910390fd5b600360008373ffffffffffffffffffffffffffffffffffffffff1673ffffffffffffffffffffffffffffffffffffffff168152602001908152602001600020549050919050565b6108bc6117de565b6108c66000611865565b565b6000600760009054906101000a900473ffffffffffffffffffffffffffffffffffffffff16905090565b60606001805461090190612d4d565b80601f016020809104026020016040519081016040528092919081815260200182805461092d90612d4d565b801561097a5780601f1061094f5761010080835404028352916020019161097a565b820191906000526020600020905b81548152906001019060200180831161095d57829003601f168201915b5050505050905090565b60006009600083815260200190815260200160002090508060030160149054906101000a900460ff166109ec576040517f08c379a00000000000000000000000000000000000000000000000000000000081526004016109e390612e01565b60405180910390fd5b3373ffffffffffffffffffffffffffffffffffffffff16610a0c836107e8565b73ffffffffffffffffffffffffffffffffffffffff1603610a62576040517f08c379a0000000000000000000000000000000000000000000000000000000008152600401610a5990612e93565b60405180910390fd5b80600401544210610aa8576040517f08c379a0000000000000000000000000000000000000000000000000000000008152600401610a9f90612eff565b60405180910390fd5b80600101543411610aee576040517f08c379a0000000000000000000000000000000000000000000000000000000008152600401610ae590612f91565b60405180910390fd5b80600201543411610b34576040517f08c379a0000000000000000000000000000000000000000000000000000000008152600401610b2b90613023565b60405180910390fd5b600081600201541115610bb1578060030160009054906101000a900473ffffffffffffffffffffffffffffffffffffffff1673ffffffffffffffffffffffffffffffffffffffff166108fc82600201549081150290604051600060405180830381858888f19350505050158015610baf573d6000803e3d6000fd5b505b348160020181905550338160030160006101000a81548173ffffffffffffffffffffffffffffffffffffffff021916908373ffffffffffffffffffffffffffffffffffffffff160217905550817f0e54eff26401bf69b81b26f60bd85ef47f5d85275c1d268d84f68d6897431c473334604051610c2f929190613043565b60405180910390a25050565b610c4d610c466115aa565b838361192b565b5050565b610c5c84848461063d565b610c6884848484611a9a565b50505050565b60006009600083815260200190815260200160002090503373ffffffffffffffffffffffffffffffffffffffff16610ca5836107e8565b73ffffffffffffffffffffffffffffffffffffffff1614610cfb576040517f08c379a0000000000000000000000000000000000000000000000000000000008152600401610cf2906130de565b60405180910390fd5b8060030160149054906101000a900460ff16610d4c576040517f08c379a0000000000000000000000000000000000000000000000000000000008152600401610d4390612e01565b60405180910390fd5b60008160030160146101000a81548160ff021916908315150217905550600081600201541115610e9b578060000160009054906101000a900473ffffffffffffffffffffffffffffffffffffffff1673ffffffffffffffffffffffffffffffffffffffff166108fc82600201549081150290604051600060405180830381858888f19350505050158015610de4573d6000803e3d6000fd5b50610e388160000160009054906101000a900473ffffffffffffffffffffffffffffffffffffffff168260030160009054906101000a900473ffffffffffffffffffffffffffffffffffffffff1684611c51565b817fd2aa34a4fdbbc6dff6a3e56f46e0f3ae2a31d7785ff3487aa5c95c642acea5018260030160009054906101000a900473ffffffffffffffffffffffffffffffffffffffff168360020154604051610e9292919061315d565b60405180910390a25b5050565b6060610eaa826114e5565b506000600660008481526020019081526020016000208054610ecb90612d4d565b80601f0160208091040260200160405190810160405280929190818152602001828054610ef790612d4d565b8015610f445780601f10610f1957610100808354040283529160200191610f44565b820191906000526020600020905b815481529060010190602001808311610f2757829003601f168201915b505050505090506000610f55611dbe565b90506000815103610f6a578192505050610fad565b600082511115610f9f578082604051602001610f879291906131c2565b60405160208183030381529060405292505050610fad565b610fa884611dd5565b925050505b919050565b3373ffffffffffffffffffffffffffffffffffffffff16610fd2846107e8565b73ffffffffffffffffffffffffffffffffffffffff1614611028576040517f08c379a000000000000000000000000000000000000000000000000000000000815260040161101f90613258565b60405180910390fd5b6000821161106b576040517f08c379a0000000000000000000000000000000000000000000000000000000008152600401611062906132ea565b60405180910390fd5b6009600084815260200190815260200160002060030160149054906101000a900460ff16156110cf576040517f08c379a00000000000000000000000000000000000000000000000000000000081526004016110c69061337c565b60405180910390fd5b6040518060c001604052803373ffffffffffffffffffffffffffffffffffffffff16815260200183815260200160008152602001600073ffffffffffffffffffffffffffffffffffffffff168152602001600115158152602001824261113591906133cb565b8152506009600085815260200190815260200160002060008201518160000160006101000a81548173ffffffffffffffffffffffffffffffffffffffff021916908373ffffffffffffffffffffffffffffffffffffffff160217905550602082015181600101556040820151816002015560608201518160030160006101000a81548173ffffffffffffffffffffffffffffffffffffffff021916908373ffffffffffffffffffffffffffffffffffffffff16021790555060808201518160030160146101000a81548160ff02191690831515021790555060a08201518160040155905050827fd6eddd1118d71820909c1197aa966dbc15ed6f508554252169cc3d5ccac756ca8360096000878152602001908152602001600020600401546040516112629291906133ff565b60405180910390a2505050565b6000600560008473ffffffffffffffffffffffffffffffffffffffff1673ffffffffffffffffffffffffffffffffffffffff16815260200190815260200160002060008373ffffffffffffffffffffffffffffffffffffffff1673ffffffffffffffffffffffffffffffffffffffff16815260200190815260200160002060009054906101000a900460ff16905092915050565b61130b6117de565b600073ffffffffffffffffffffffffffffffffffffffff168173ffffffffffffffffffffffffffffffffffffffff160361137d5760006040517f1e4fbdf700000000000000000000000000000000000000000000000000000000815260040161137491906127ca565b60405180910390fd5b61138681611865565b50565b600060016008600082825461139e91906133cb565b92505081905550600060085490506113b63382611e3e565b6113c08184611f37565b807f06becd955c918828f6e985541acbf49cc842c9e9bd569fffc7698e721ef1357533856040516113f2929190613428565b60405180910390a280915050919050565b60007f80ac58cd000000000000000000000000000000000000000000000000000000007bffffffffffffffffffffffffffffffffffffffffffffffffffffffff1916827bffffffffffffffffffffffffffffffffffffffffffffffffffffffff191614806114ce57507f5b5e139f000000000000000000000000000000000000000000000000000000007bffffffffffffffffffffffffffffffffffffffffffffffffffffffff1916827bffffffffffffffffffffffffffffffffffffffffffffffffffffffff1916145b806114de57506114dd82611f93565b5b9050919050565b6000806114f183611ffd565b9050600073ffffffffffffffffffffffffffffffffffffffff168173ffffffffffffffffffffffffffffffffffffffff160361156457826040517f7e27328900000000000000000000000000000000000000000000000000000000815260040161155b9190612962565b60405180910390fd5b80915050919050565b60006004600083815260200190815260200160002060009054906101000a900473ffffffffffffffffffffffffffffffffffffffff169050919050565b600033905090565b6115bf838383600161203a565b505050565b6000806115d084611ffd565b9050600073ffffffffffffffffffffffffffffffffffffffff168373ffffffffffffffffffffffffffffffffffffffff1614611612576116118184866121ff565b5b600073ffffffffffffffffffffffffffffffffffffffff168173ffffffffffffffffffffffffffffffffffffffff16146116a35761165460008560008061203a565b6001600360008373ffffffffffffffffffffffffffffffffffffffff1673ffffffffffffffffffffffffffffffffffffffff168152602001908152602001600020600082825403925050819055505b600073ffffffffffffffffffffffffffffffffffffffff168573ffffffffffffffffffffffffffffffffffffffff1614611726576001600360008773ffffffffffffffffffffffffffffffffffffffff1673ffffffffffffffffffffffffffffffffffffffff168152602001908152602001600020600082825401925050819055505b846002600086815260200190815260200160002060006101000a81548173ffffffffffffffffffffffffffffffffffffffff021916908373ffffffffffffffffffffffffffffffffffffffff160217905550838573ffffffffffffffffffffffffffffffffffffffff168273ffffffffffffffffffffffffffffffffffffffff167fddf252ad1be2c89b69c2b068fc378daa952ba7f163c4a11628f55a4df523b3ef60405160405180910390a4809150509392505050565b6117e66115aa565b73ffffffffffffffffffffffffffffffffffffffff166118046108c8565b73ffffffffffffffffffffffffffffffffffffffff1614611863576118276115aa565b6040517f118cdaa700000000000000000000000000000000000000000000000000000000815260040161185a91906127ca565b60405180910390fd5b565b6000600760009054906101000a900473ffffffffffffffffffffffffffffffffffffffff16905081600760006101000a81548173ffffffffffffffffffffffffffffffffffffffff021916908373ffffffffffffffffffffffffffffffffffffffff1602179055508173ffffffffffffffffffffffffffffffffffffffff168173ffffffffffffffffffffffffffffffffffffffff167f8be0079c531659141344cd1fd0a4f28419497f9722a3daafe3b4186f6b6457e060405160405180910390a35050565b600073ffffffffffffffffffffffffffffffffffffffff168273ffffffffffffffffffffffffffffffffffffffff160361199c57816040517f5b08ba1800000000000000000000000000000000000000000000000000000000815260040161199391906127ca565b60405180910390fd5b80600560008573ffffffffffffffffffffffffffffffffffffffff1673ffffffffffffffffffffffffffffffffffffffff16815260200190815260200160002060008473ffffffffffffffffffffffffffffffffffffffff1673ffffffffffffffffffffffffffffffffffffffff16815260200190815260200160002060006101000a81548160ff0219169083151502179055508173ffffffffffffffffffffffffffffffffffffffff168373ffffffffffffffffffffffffffffffffffffffff167f17307eab39ab6107e8899845ad3d59bd9653f200f220920489ca2b5937696c3183604051611a8d9190612659565b60405180910390a3505050565b60008373ffffffffffffffffffffffffffffffffffffffff163b1115611c4b578273ffffffffffffffffffffffffffffffffffffffff1663150b7a02611ade6115aa565b8685856040518563ffffffff1660e01b8152600401611b0094939291906134ad565b6020604051808303816000875af1925050508015611b3c57506040513d601f19601f82011682018060405250810190611b39919061350e565b60015b611bc0573d8060008114611b6c576040519150601f19603f3d011682016040523d82523d6000602084013e611b71565b606091505b506000815103611bb857836040517f64a0ae92000000000000000000000000000000000000000000000000000000008152600401611baf91906127ca565b60405180910390fd5b805181602001fd5b63150b7a0260e01b7bffffffffffffffffffffffffffffffffffffffffffffffffffffffff1916817bffffffffffffffffffffffffffffffffffffffffffffffffffffffff191614611c4957836040517f64a0ae92000000000000000000000000000000000000000000000000000000008152600401611c4091906127ca565b60405180910390fd5b505b50505050565b600073ffffffffffffffffffffffffffffffffffffffff168273ffffffffffffffffffffffffffffffffffffffff1603611cc35760006040517f64a0ae92000000000000000000000000000000000000000000000000000000008152600401611cba91906127ca565b60405180910390fd5b6000611cd1838360006115c4565b9050600073ffffffffffffffffffffffffffffffffffffffff168173ffffffffffffffffffffffffffffffffffffffff1603611d4457816040517f7e273289000000000000000000000000000000000000000000000000000000008152600401611d3b9190612962565b60405180910390fd5b8373ffffffffffffffffffffffffffffffffffffffff168173ffffffffffffffffffffffffffffffffffffffff1614611db8578382826040517f64283d7b000000000000000000000000000000000000000000000000000000008152600401611daf93929190612d7e565b60405180910390fd5b50505050565b606060405180602001604052806000815250905090565b6060611de0826114e5565b506000611deb611dbe565b90506000815111611e0b5760405180602001604052806000815250611e36565b80611e15846122c3565b604051602001611e269291906131c2565b6040516020818303038152906040525b915050919050565b600073ffffffffffffffffffffffffffffffffffffffff168273ffffffffffffffffffffffffffffffffffffffff1603611eb05760006040517f64a0ae92000000000000000000000000000000000000000000000000000000008152600401611ea791906127ca565b60405180910390fd5b6000611ebe838360006115c4565b9050600073ffffffffffffffffffffffffffffffffffffffff168173ffffffffffffffffffffffffffffffffffffffff1614611f325760006040517f73c6ac6e000000000000000000000000000000000000000000000000000000008152600401611f2991906127ca565b60405180910390fd5b505050565b80600660008481526020019081526020016000209081611f5791906136dd565b507ff8e1a15aba9398e019f0b49df1a4fde98ee17ae345cb5f6b5e2c27f5033e8ce782604051611f879190612962565b60405180910390a15050565b60007f01ffc9a7000000000000000000000000000000000000000000000000000000007bffffffffffffffffffffffffffffffffffffffffffffffffffffffff1916827bffffffffffffffffffffffffffffffffffffffffffffffffffffffff1916149050919050565b60006002600083815260200190815260200160002060009054906101000a900473ffffffffffffffffffffffffffffffffffffffff169050919050565b80806120735750600073ffffffffffffffffffffffffffffffffffffffff168273ffffffffffffffffffffffffffffffffffffffff1614155b156121a7576000612083846114e5565b9050600073ffffffffffffffffffffffffffffffffffffffff168373ffffffffffffffffffffffffffffffffffffffff16141580156120ee57508273ffffffffffffffffffffffffffffffffffffffff168173ffffffffffffffffffffffffffffffffffffffff1614155b801561210157506120ff818461126f565b155b1561214357826040517fa9fbf51f00000000000000000000000000000000000000000000000000000000815260040161213a91906127ca565b60405180910390fd5b81156121a557838573ffffffffffffffffffffffffffffffffffffffff168273ffffffffffffffffffffffffffffffffffffffff167f8c5be1e5ebec7d5bd14f71427d1e84f3dd0314c0f7b2291e5b200ac8c7c3b92560405160405180910390a45b505b836004600085815260200190815260200160002060006101000a81548173ffffffffffffffffffffffffffffffffffffffff021916908373ffffffffffffffffffffffffffffffffffffffff16021790555050505050565b61220a838383612391565b6122be57600073ffffffffffffffffffffffffffffffffffffffff168373ffffffffffffffffffffffffffffffffffffffff160361227f57806040517f7e2732890000000000000000000000000000000000000000000000000000000081526004016122769190612962565b60405180910390fd5b81816040517f177e802f0000000000000000000000000000000000000000000000000000000081526004016122b5929190613043565b60405180910390fd5b505050565b6060600060016122d284612452565b01905060008167ffffffffffffffff8111156122f1576122f06129f3565b5b6040519080825280601f01601f1916602001820160405280156123235781602001600182028036833780820191505090505b509050600082602001820190505b600115612386578080600190039150507f3031323334353637383961626364656600000000000000000000000000000000600a86061a8153600a858161237a576123796137af565b5b04945060008503612331575b819350505050919050565b60008073ffffffffffffffffffffffffffffffffffffffff168373ffffffffffffffffffffffffffffffffffffffff161415801561244957508273ffffffffffffffffffffffffffffffffffffffff168473ffffffffffffffffffffffffffffffffffffffff16148061240a5750612409848461126f565b5b8061244857508273ffffffffffffffffffffffffffffffffffffffff166124308361156d565b73ffffffffffffffffffffffffffffffffffffffff16145b5b90509392505050565b600080600090507a184f03e93ff9f4daa797ed6e38ed64bf6a1f01000000000000000083106124b0577a184f03e93ff9f4daa797ed6e38ed64bf6a1f01000000000000000083816124a6576124a56137af565b5b0492506040810190505b6d04ee2d6d415b85acef810000000083106124ed576d04ee2d6d415b85acef810000000083816124e3576124e26137af565b5b0492506020810190505b662386f26fc10000831061251c57662386f26fc100008381612512576125116137af565b5b0492506010810190505b6305f5e1008310612545576305f5e100838161253b5761253a6137af565b5b0492506008810190505b612710831061256a5761271083816125605761255f6137af565b5b0492506004810190505b6064831061258d5760648381612583576125826137af565b5b0492506002810190505b600a831061259c576001810190505b80915050919050565b6000604051905090565b600080fd5b600080fd5b60007fffffffff0000000000000000000000000000000000000000000000000000000082169050919050565b6125ee816125b9565b81146125f957600080fd5b50565b60008135905061260b816125e5565b92915050565b600060208284031215612627576126266125af565b5b6000612635848285016125fc565b91505092915050565b60008115159050919050565b6126538161263e565b82525050565b600060208201905061266e600083018461264a565b92915050565b600081519050919050565b600082825260208201905092915050565b60005b838110156126ae578082015181840152602081019050612693565b60008484015250505050565b6000601f19601f8301169050919050565b60006126d682612674565b6126e0818561267f565b93506126f0818560208601612690565b6126f9816126ba565b840191505092915050565b6000602082019050818103600083015261271e81846126cb565b905092915050565b6000819050919050565b61273981612726565b811461274457600080fd5b50565b60008135905061275681612730565b92915050565b600060208284031215612772576127716125af565b5b600061278084828501612747565b91505092915050565b600073ffffffffffffffffffffffffffffffffffffffff82169050919050565b60006127b482612789565b9050919050565b6127c4816127a9565b82525050565b60006020820190506127df60008301846127bb565b92915050565b6127ee816127a9565b81146127f957600080fd5b50565b60008135905061280b816127e5565b92915050565b60008060408385031215612828576128276125af565b5b6000612836858286016127fc565b925050602061284785828601612747565b9150509250929050565b60008060006060848603121561286a576128696125af565b5b6000612878868287016127fc565b9350506020612889868287016127fc565b925050604061289a86828701612747565b9150509250925092565b60006128af82612789565b9050919050565b6128bf816128a4565b82525050565b6128ce81612726565b82525050565b600060c0820190506128e960008301896128b6565b6128f660208301886128c5565b61290360408301876128c5565b61291060608301866128b6565b61291d608083018561264a565b61292a60a08301846128c5565b979650505050505050565b60006020828403121561294b5761294a6125af565b5b6000612959848285016127fc565b91505092915050565b600060208201905061297760008301846128c5565b92915050565b6129868161263e565b811461299157600080fd5b50565b6000813590506129a38161297d565b92915050565b600080604083850312156129c0576129bf6125af565b5b60006129ce858286016127fc565b92505060206129df85828601612994565b9150509250929050565b600080fd5b600080fd5b7f4e487b7100000000000000000000000000000000000000000000000000000000600052604160045260246000fd5b612a2b826126ba565b810181811067ffffffffffffffff82111715612a4a57612a496129f3565b5b80604052505050565b6000612a5d6125a5565b9050612a698282612a22565b919050565b600067ffffffffffffffff821115612a8957612a886129f3565b5b612a92826126ba565b9050602081019050919050565b82818337600083830152505050565b6000612ac1612abc84612a6e565b612a53565b905082815260208101848484011115612add57612adc6129ee565b5b612ae8848285612a9f565b509392505050565b600082601f830112612b0557612b046129e9565b5b8135612b15848260208601612aae565b91505092915050565b60008060008060808587031215612b3857612b376125af565b5b6000612b46878288016127fc565b9450506020612b57878288016127fc565b9350506040612b6887828801612747565b925050606085013567ffffffffffffffff811115612b8957612b886125b4565b5b612b9587828801612af0565b91505092959194509250565b600080600060608486031215612bba57612bb96125af565b5b6000612bc886828701612747565b9350506020612bd986828701612747565b9250506040612bea86828701612747565b9150509250925092565b60008060408385031215612c0b57612c0a6125af565b5b6000612c19858286016127fc565b9250506020612c2a858286016127fc565b9150509250929050565b600067ffffffffffffffff821115612c4f57612c4e6129f3565b5b612c58826126ba565b9050602081019050919050565b6000612c78612c7384612c34565b612a53565b905082815260208101848484011115612c9457612c936129ee565b5b612c9f848285612a9f565b509392505050565b600082601f830112612cbc57612cbb6129e9565b5b8135612ccc848260208601612c65565b91505092915050565b600060208284031215612ceb57612cea6125af565b5b600082013567ffffffffffffffff811115612d0957612d086125b4565b5b612d1584828501612ca7565b91505092915050565b7f4e487b7100000000000000000000000000000000000000000000000000000000600052602260045260246000fd5b60006002820490506001821680612d6557607f821691505b602082108103612d7857612d77612d1e565b5b50919050565b6000606082019050612d9360008301866127bb565b612da060208301856128c5565b612dad60408301846127bb565b949350505050565b7f41756374696f6e206973206e6f74206163746976650000000000000000000000600082015250565b6000612deb60158361267f565b9150612df682612db5565b602082019050919050565b60006020820190508181036000830152612e1a81612dde565b9050919050565b7f4f776e6572206f662074686520746f6b656e2063616e6e6f742062696420696e60008201527f2061756374696f6e000000000000000000000000000000000000000000000000602082015250565b6000612e7d60288361267f565b9150612e8882612e21565b604082019050919050565b60006020820190508181036000830152612eac81612e70565b9050919050565b7f41756374696f6e2068617320656e646564000000000000000000000000000000600082015250565b6000612ee960118361267f565b9150612ef482612eb3565b602082019050919050565b60006020820190508181036000830152612f1881612edc565b9050919050565b7f426964206d75737420626520686967686572207468616e207374617274696e6760008201527f2070726963650000000000000000000000000000000000000000000000000000602082015250565b6000612f7b60268361267f565b9150612f8682612f1f565b604082019050919050565b60006020820190508181036000830152612faa81612f6e565b9050919050565b7f426964206d75737420626520686967686572207468616e2063757272656e742060008201527f6869676865737420626964000000000000000000000000000000000000000000602082015250565b600061300d602b8361267f565b915061301882612fb1565b604082019050919050565b6000602082019050818103600083015261303c81613000565b9050919050565b600060408201905061305860008301856127bb565b61306560208301846128c5565b9392505050565b7f4f6e6c7920746865206f776e6572206f662074686520746f6b656e2063616e2060008201527f656e6420616e2061756374696f6e000000000000000000000000000000000000602082015250565b60006130c8602e8361267f565b91506130d38261306c565b604082019050919050565b600060208201905081810360008301526130f7816130bb565b9050919050565b6000819050919050565b600061312361311e61311984612789565b6130fe565b612789565b9050919050565b600061313582613108565b9050919050565b60006131478261312a565b9050919050565b6131578161313c565b82525050565b6000604082019050613172600083018561314e565b61317f60208301846128c5565b9392505050565b600081905092915050565b600061319c82612674565b6131a68185613186565b93506131b6818560208601612690565b80840191505092915050565b60006131ce8285613191565b91506131da8284613191565b91508190509392505050565b7f4f6e6c7920746865206f776e6572206f662074686520746f6b656e2063616e2060008201527f63726561746520616e2061756374696f6e000000000000000000000000000000602082015250565b600061324260318361267f565b915061324d826131e6565b604082019050919050565b6000602082019050818103600083015261327181613235565b9050919050565b7f5374617274696e67207072696365206d7573742062652067726561746572207460008201527f68616e2030000000000000000000000000000000000000000000000000000000602082015250565b60006132d460258361267f565b91506132df82613278565b604082019050919050565b60006020820190508181036000830152613303816132c7565b9050919050565b7f41756374696f6e20616c72656164792061637469766520666f7220746869732060008201527f746f6b656e000000000000000000000000000000000000000000000000000000602082015250565b600061336660258361267f565b91506133718261330a565b604082019050919050565b6000602082019050818103600083015261339581613359565b9050919050565b7f4e487b7100000000000000000000000000000000000000000000000000000000600052601160045260246000fd5b60006133d682612726565b91506133e183612726565b92508282019050808211156133f9576133f861339c565b5b92915050565b600060408201905061341460008301856128c5565b61342160208301846128c5565b9392505050565b600060408201905061343d60008301856127bb565b818103602083015261344f81846126cb565b90509392505050565b600081519050919050565b600082825260208201905092915050565b600061347f82613458565b6134898185613463565b9350613499818560208601612690565b6134a2816126ba565b840191505092915050565b60006080820190506134c260008301876127bb565b6134cf60208301866127bb565b6134dc60408301856128c5565b81810360608301526134ee8184613474565b905095945050505050565b600081519050613508816125e5565b92915050565b600060208284031215613524576135236125af565b5b6000613532848285016134f9565b91505092915050565b60008190508160005260206000209050919050565b60006020601f8301049050919050565b600082821b905092915050565b60006008830261359d7fffffffffffffffffffffffffffffffffffffffffffffffffffffffffffffffff82613560565b6135a78683613560565b95508019841693508086168417925050509392505050565b60006135da6135d56135d084612726565b6130fe565b612726565b9050919050565b6000819050919050565b6135f4836135bf565b613608613600826135e1565b84845461356d565b825550505050565b600090565b61361d613610565b6136288184846135eb565b505050565b5b8181101561364c57613641600082613615565b60018101905061362e565b5050565b601f821115613691576136628161353b565b61366b84613550565b8101602085101561367a578190505b61368e61368685613550565b83018261362d565b50505b505050565b600082821c905092915050565b60006136b460001984600802613696565b1980831691505092915050565b60006136cd83836136a3565b9150826002028217905092915050565b6136e682612674565b67ffffffffffffffff8111156136ff576136fe6129f3565b5b6137098254612d4d565b613714828285613650565b600060209050601f8311600181146137475760008415613735578287015190505b61373f85826136c1565b8655506137a7565b601f1984166137558661353b565b60005b8281101561377d57848901518255600182019150602085019450602081019050613758565b8683101561379a5784890151613796601f8916826136a3565b8355505b6001600288020188555050505b505050505050565b7f4e487b7100000000000000000000000000000000000000000000000000000000600052601260045260246000fdfea2646970667358221220400f2b4540cf82ee4dc1f2b22ef933a2b466502ec768cd922150b51c63ac4ccd64736f6c63430008180033",
  "linkReferences": {},
  "deployedLinkReferences": {}
}